{
  "_format": "hh-sol-artifact-1",
  "contractName": "Token",
  "sourceName": "contracts/Token.sol",
  "abi": [
    {
      "inputs": [],
      "stateMutability": "nonpayable",
      "type": "constructor"
    },
    {
      "inputs": [
        {
          "internalType": "address",
          "name": "account",
          "type": "address"
        }
      ],
      "name": "balanceOf",
      "outputs": [
        {
          "internalType": "uint256",
          "name": "",
          "type": "uint256"
        }
      ],
      "stateMutability": "view",
      "type": "function"
    },
    {
      "inputs": [],
      "name": "name",
      "outputs": [
        {
          "internalType": "string",
          "name": "",
          "type": "string"
        }
      ],
      "stateMutability": "view",
      "type": "function"
    },
    {
      "inputs": [],
      "name": "owner",
      "outputs": [
        {
          "internalType": "address",
          "name": "",
          "type": "address"
        }
      ],
      "stateMutability": "view",
      "type": "function"
    },
    {
      "inputs": [],
      "name": "symbol",
      "outputs": [
        {
          "internalType": "string",
          "name": "",
          "type": "string"
        }
      ],
      "stateMutability": "view",
      "type": "function"
    },
    {
      "inputs": [],
      "name": "totalSupply",
      "outputs": [
        {
          "internalType": "uint256",
          "name": "",
          "type": "uint256"
        }
      ],
      "stateMutability": "view",
      "type": "function"
    },
    {
      "inputs": [
        {
          "internalType": "address",
          "name": "to",
          "type": "address"
        },
        {
          "internalType": "uint256",
          "name": "amount",
          "type": "uint256"
        }
      ],
      "name": "transfer",
      "outputs": [],
      "stateMutability": "nonpayable",
      "type": "function"
    }
  ],
  "bytecode": "0x60806040526040518060400160405280601081526020017f4d79204861726468617420546f6b656e000000000000000000000000000000008152506000908051906020019061004f92919061013c565b506040518060400160405280600381526020017f4d485400000000000000000000000000000000000000000000000000000000008152506001908051906020019061009b92919061013c565b50620f42406002553480156100af57600080fd5b50600254600460003373ffffffffffffffffffffffffffffffffffffffff1673ffffffffffffffffffffffffffffffffffffffff1681526020019081526020016000208190555033600360006101000a81548173ffffffffffffffffffffffffffffffffffffffff021916908373ffffffffffffffffffffffffffffffffffffffff16021790555061023f565b8280546101489061020e565b90600052602060002090601f01602090048101928261016a57600085556101b1565b82601f1061018357805160ff19168380011785556101b1565b828001600101855582156101b1579182015b828111156101b0578251825591602001919060010190610195565b5b5090506101be91906101c2565b5090565b5b808211156101db5760008160009055506001016101c3565b5090565b7f4e487b7100000000000000000000000000000000000000000000000000000000600052602260045260246000fd5b6000600282049050600182168061022657607f821691505b602082108103610239576102386101df565b5b50919050565b6107be8061024e6000396000f3fe608060405234801561001057600080fd5b50600436106100625760003560e01c806306fdde031461006757806318160ddd1461008557806370a08231146100a35780638da5cb5b146100d357806395d89b41146100f1578063a9059cbb1461010f575b600080fd5b61006f61012b565b60405161007c9190610487565b60405180910390f35b61008d6101b9565b60405161009a91906104c2565b60405180910390f35b6100bd60048036038101906100b89190610540565b6101bf565b6040516100ca91906104c2565b60405180910390f35b6100db610208565b6040516100e8919061057c565b60405180910390f35b6100f961022e565b6040516101069190610487565b60405180910390f35b610129600480360381019061012491906105c3565b6102bc565b005b6000805461013890610632565b80601f016020809104026020016040519081016040528092919081815260200182805461016490610632565b80156101b15780601f10610186576101008083540402835291602001916101b1565b820191906000526020600020905b81548152906001019060200180831161019457829003601f168201915b505050505081565b60025481565b6000600460008373ffffffffffffffffffffffffffffffffffffffff1673ffffffffffffffffffffffffffffffffffffffff168152602001908152602001600020549050919050565b600360009054906101000a900473ffffffffffffffffffffffffffffffffffffffff1681565b6001805461023b90610632565b80601f016020809104026020016040519081016040528092919081815260200182805461026790610632565b80156102b45780601f10610289576101008083540402835291602001916102b4565b820191906000526020600020905b81548152906001019060200180831161029757829003601f168201915b505050505081565b80600460003373ffffffffffffffffffffffffffffffffffffffff1673ffffffffffffffffffffffffffffffffffffffff16815260200190815260200160002054101561033e576040517f08c379a0000000000000000000000000000000000000000000000000000000008152600401610335906106af565b60405180910390fd5b80600460003373ffffffffffffffffffffffffffffffffffffffff1673ffffffffffffffffffffffffffffffffffffffff168152602001908152602001600020600082825461038d91906106fe565b9250508190555080600460008473ffffffffffffffffffffffffffffffffffffffff1673ffffffffffffffffffffffffffffffffffffffff16815260200190815260200160002060008282546103e39190610732565b925050819055505050565b600081519050919050565b600082825260208201905092915050565b60005b8381101561042857808201518184015260208101905061040d565b83811115610437576000848401525b50505050565b6000601f19601f8301169050919050565b6000610459826103ee565b61046381856103f9565b935061047381856020860161040a565b61047c8161043d565b840191505092915050565b600060208201905081810360008301526104a1818461044e565b905092915050565b6000819050919050565b6104bc816104a9565b82525050565b60006020820190506104d760008301846104b3565b92915050565b600080fd5b600073ffffffffffffffffffffffffffffffffffffffff82169050919050565b600061050d826104e2565b9050919050565b61051d81610502565b811461052857600080fd5b50565b60008135905061053a81610514565b92915050565b600060208284031215610556576105556104dd565b5b60006105648482850161052b565b91505092915050565b61057681610502565b82525050565b6000602082019050610591600083018461056d565b92915050565b6105a0816104a9565b81146105ab57600080fd5b50565b6000813590506105bd81610597565b92915050565b600080604083850312156105da576105d96104dd565b5b60006105e88582860161052b565b92505060206105f9858286016105ae565b9150509250929050565b7f4e487b7100000000000000000000000000000000000000000000000000000000600052602260045260246000fd5b6000600282049050600182168061064a57607f821691505b60208210810361065d5761065c610603565b5b50919050565b7f4e6f7420656e6f75676820746f6b656e73000000000000000000000000000000600082015250565b60006106996011836103f9565b91506106a482610663565b602082019050919050565b600060208201905081810360008301526106c88161068c565b9050919050565b7f4e487b7100000000000000000000000000000000000000000000000000000000600052601160045260246000fd5b6000610709826104a9565b9150610714836104a9565b925082821015610727576107266106cf565b5b828203905092915050565b600061073d826104a9565b9150610748836104a9565b9250827fffffffffffffffffffffffffffffffffffffffffffffffffffffffffffffffff0382111561077d5761077c6106cf565b5b82820190509291505056fea264697066735822122096ac6a0dd3bf2b0e5295a787f4170e3b421b5a0d4c2b515fa2727ca74c88685864736f6c634300080e0033",
  "linkReferences": {},
  "deployedLinkReferences": {}
}